:100000000C94FE000C9424010C9424010C94240103
:100010000C9424010C9424010C9424010C942401CC
:100020000C9424010C9424010C9424010C942401BC
:100030000C9424010C9424010C9424010C942401AC
:100040000C9424010C9424010C9424010C9424019C
:100050000C9424010C9424010C9424010C9424018C
:100060000C9424010C9424010C9424010C9424017C
:100070000C9424010C9424010C9424010C9424016C
:100080000C9424010C9424010C9424010C9424015C
:100090000C9424010C9424010C9424010C9424014C
:1000A0000C9424010C9424010C9424010C9424013C
:1000B0000C9424010C9424010C9424010C9424012C
:1000C0000C9424010C9424010C9424010C9424011C
:1000D0000C9424010C9424010C9424010C9424010C
:1000E0000C9424010C9424010C9424010C942401FC
:1000F0000C9424010C9424010C9424010C942401EC
:100100000C9424010C9424010C9461030C9424019C
:100110000C9424010C9424010C9424010C942401CB
:100120000C9424010C9424010C9424010C942401BB
:100130000C9424010C9424010C9424010C942401AB
:100140000C9424010C9424010C9424010C9424019B
:100150000C9424010C9424010C9424010C9424018B
:100160000C9424010C9424010C9424010C9424017B
:100170000C9424010C9424010C9424010C94780315
:100180000C9424010C9424010C9424010C9424015B
:100190000C9424010C9424010C9424010C9424014B
:1001A0000C9424010C9424010C9424010C9424013B
:1001B0000C9424010C9424010C9424010C9424012B
:1001C0000C9424010C9424010C9424010C9424011B
:1001D0000C9424010C9424010C9424010C9424010B
:1001E0000C9424010C9424010C9424010C942401FB
:1001F0000C9424010C9424010C94240111241FBE9E
:10020000CFEFCDBFDFE3DEBF00E00CBF18BE19BEED
:100210001ABE1BBE10E2A0E0B0E2EEEBFBE000E095
:100220000BBF02C007900D92A630B107D9F71BBED5
:1002300020E2A6E0B0E201C01D92A531B207E1F7CD
:100240000E948F030C94DD050C94000010920006B0
:100250001092170683E08093090680E880930A06CF
:1002600010922006109240061092600610928006AE
:100270001092A0061092E00610920007109220073C
:1002800082E08093C0078093C4071092D0078CE06F
:100290008093C90781E08093CB071092E007E2EAE0
:1002A000F0E080818460808308958091042085300F
:1002B00020F481E08093052012C09BEF980F9430CA
:1002C00020F482E0809305200AC08950843020F415
:1002D00083E08093052003C084E080930520809113
:1002E0000620882349F18FE780930006809106203D
:1002F0008093040680910520882351F080E096E0E9
:100300009A95F1F700C08F5F909105208917B8F397
:100310008FE78093070680910520882351F080E0C5
:1003200096E09A95F1F700C08F5F909105208917AC
:10033000B8F310920006089580910720882349F1B0
:100340008FEF809320068091072080932406809170
:100350000520882351F080E096E09A95F1F700C0DF
:100360008F5F909105208917B8F38FEF8093270650
:1003700080910520882351F080E096E09A95F1F76E
:1003800000C08F5F909105208917B8F31092200666
:10039000089580910820882349F18FEF80934006CB
:1003A000809108208093440680910520882351F095
:1003B00080E096E09A95F1F700C08F5F909105205C
:1003C0008917B8F38FEF8093470680910520882323
:1003D00051F080E096E09A95F1F700C08F5F909120
:1003E00005208917B8F310924006089580910920DE
:1003F000882349F18FEF80936006809109208093D4
:10040000640680910520882351F080E096E09A955B
:10041000F1F700C08F5F909105208917B8F38FEF37
:100420008093670680910520882351F080E096E054
:100430009A95F1F700C08F5F909105208917B8F366
:1004400010926006089580910A20882349F18FEF69
:100450008093800680910A208093840680910520F5
:10046000882351F080E096E09A95F1F700C08F5F05
:10047000909105208917B8F38FEF809387068091BC
:100480000520882351F080E096E09A95F1F700C0AE
:100490008F5F909105208917B8F310928006089518
:1004A00080910B20882349F18FEF8093A0068091E3
:1004B0000C208093A40680910520882351F080E0D1
:1004C00096E09A95F1F700C08F5F9091052089170B
:1004D000B8F38FEF8093A70680910520882351F011
:1004E00080E096E09A95F1F700C08F5F909105202B
:1004F0008917B8F31092A006089580910C208823E4
:1005000049F18FEF8093E00680910C208093E40600
:1005100080910520882351F080E096E09A95F1F7CC
:1005200000C08F5F909105208917B8F38FEF8093FB
:10053000E70680910520882351F080E096E09A95A7
:10054000F1F700C08F5F909105208917B8F31092E2
:10055000E006089580910D20882349F18FEF809364
:10056000000780910E208093040780910520882346
:1005700051F080E096E09A95F1F700C08F5F90917E
:1005800005208917B8F38FEF809307078091052026
:10059000882351F080E096E09A95F1F700C08F5FD4
:1005A000909105208917B8F3109200070895809163
:1005B0000E20882349F18FEF8093200780910E2031
:1005C0008093240780910520882351F080E096E0F5
:1005D0009A95F1F700C08F5F909105208917B8F3C5
:1005E0008FEF8093270780910520882351F080E0CA
:1005F00096E09A95F1F700C08F5F909105208917DA
:10060000B8F310922007089580910F20882361F19C
:100610008EEF8093C00780910F208093C407809154
:100620000520882351F080E096E09A95F1F700C00C
:100630008F5F909105208917B8F38FEF8093C707DC
:1006400080910520882351F080E096E09A95F1F79B
:1006500000C08F5F909105208917B8F382E08093E6
:10066000C0078093C507089580911020882341F129
:100670008FEF8093E007809110208093E4078091B2
:100680000520882351F080E096E09A95F1F700C0AC
:100690008F5F909105208917B8F38FEF8093E7075C
:1006A00080910520882351F080E096E09A95F1F73B
:1006B00000C08F5F909105208917B8F31092E00772
:1006C00008951F920F920FB60F92112408B60F9241
:1006D00018BE109213201092142010921120109224
:1006E00012200F9008BE0F900FBE0F901F9018950C
:1006F0001F920F920FB60F92112408B60F9218BED8
:100700001092132010921420109211201092122097
:100710000F9008BE0F900FBE0F901F9018950E946B
:10072000260101E110E20F2EFAE04F2E512CF02DA0
:100730000F2EF6E08F2EF0E29F2EF02D68946624A7
:1007400061F8712C6894222423F8312C6894AA242F
:10075000A6F8B12CC8ECD7E00F2EF8E0EF2EF6E0AB
:10076000FF2EF02DE6E0F0E211920E171F07E1F7E1
:100770000E947A05B2010E94F8046C01811112C036
:100780000E947A05F601FF27EA5FFF4D67E070E0FF
:100790000E94F804950102C0359527958A95E2F7E5
:1007A000208374C08FEF8C0D8830C0F40E947A05CE
:1007B000F601FF27EA5FFF4D87709078992324F4B4
:1007C0000197886F9F6F019620E830E0A90102C071
:1007D000559547958A95E2F7408358C00E947A055F
:1007E00081709078992324F401978E6F9F6F019602
:1007F0000197D9F40E947A056C010E947A059C0148
:10080000C60169E070E00E94F804FC01EA5FFF4D58
:10081000C90167E070E00E94F804950102C03595B7
:1008200027958A95E2F7208331C00E947A0581706E
:100830009078992324F401978E6F9F6F019601970A
:1008400099F40E947A0581709078992324F4019795
:100850008E6F9F6F0196A10102C0559547958A95AD
:10086000E2F7F401418712C00E947A058170907806
:10087000992324F401978E6F9F6F0196930102C014
:10088000359527958A95E2F7F40122870E94550154
:10089000409104202AEF2403C001112488589F4F5F
:1008A000181619069CF420E03AEF46E04A95F1F755
:1008B00000C02F5F40910420622F70E03403C0011C
:1008C000112488589F4F681779077CF3888180FD31
:1008D00024C0E0911320F09114203196E09313206E
:1008E000F09314209F01ADECBCEC0E940C05929596
:1008F00082958F7089279F70892754E1589F9001B6
:10090000599F300D1124E21BF30B319751F44837F6
:1009100040F44F5F4093042004C0109213201092C3
:100920001420F7018081882344F1409111205091D7
:1009300012204F5F5F4F40931120509312209A0175
:10094000ADECBCEC0E940C05929582958F708927C6
:100950009F70892764E1689F9001699F300D112481
:10096000421B530B4130510561F4809104208230C9
:1009700040F081508093042004C010921120109206
:10098000122082E08093C50780911320909114205B
:100990008935924040F48091112090911220893540
:1009A000924008F4DFCE81E08093042082E08093BF
:1009B000C607888180FFFDCFF70180818823CCF7AF
:1009C000FFE32DE033E0F15020403040E1F700C07C
:1009D00000007894E8E4F0E08081817F8460808387
:1009E000808181608083889580818E7F8083BACE6C
:1009F00097FB072E16F4009407D077FD09D00E94CC
:100A00001B0507FC05D03EF4909581959F4F0895F6
:100A1000709561957F4F0895A29FB001B39FC0016B
:100A2000A39F700D811D1124911DB29F700D811D1A
:100A30001124911D0895AA1BBB1B51E107C0AA1FD9
:100A4000BB1FA617B70710F0A61BB70B881F991F6F
:100A50005A95A9F780959095BC01CD0108958F9284
:100A60009F92AF92BF92CF92DF92EF92FF92CF937D
:100A7000DF93EC01688179818A819B816115710521
:100A80008105910521F464E279ED8BE597E02DE194
:100A900033EF41E050E00E94890549015A019B0172
:100AA000AC01A7EAB1E40E94A8056B017C01ACEEA1
:100AB000B4EFA50194010E94B605DC01CB018C0DB9
:100AC0009D1DAE1DBF1DB7FF03C00197A109B04812
:100AD00088839983AA83BB839F77DF91CF91FF900F
:100AE000EF90DF90CF90BF90AF909F908F90089540
:100AF0000C942F0580E090E20C942F05A0E0B0E06C
:100B00008093002090930120A0930220B0930320B3
:100B10000895052E97FB1EF400940E94A00557FD32
:100B200007D00E94BB0507FC03D04EF40C94A0052F
:100B300050954095309521953F4F4F4F5F4F089509
:100B400090958095709561957F4F8F4F9F4F089539
:100B50000E940C05A59F900DB49F900DA49F800D41
:100B6000911D11240895B7FF0C94A8050E94A805B3
:100B7000821B930B0895A1E21A2EAA1BBB1BFD0139
:100B80000DC0AA1FBB1FEE1FFF1FA217B307E4076C
:100B9000F50720F0A21BB30BE40BF50B661F771FC4
:100BA000881F991F1A9469F76095709580959095A4
:0E0BB0009B01AC01BD01CF010895F894FFCF69
:060BBE000100000001012E
:00000001FF
